:100000000C94D2000C94EF000C94EF000C94EF00D1
:100010000C94F1030C94EF000C94EF000C94EF009F
:100020000C94EF000C9462040C94EF000C94EF001D
:100030000C94EF000C9487020C94EF000C942B02AC
:100040000C94910B0C94EF000C94EF000C94EF00C7
:100050000C94EF006E616E00696E66006364696EF9
:100060006F70737578585B65666745464700616ECB
:10007000006E66696E69747900CDCCCC3D0AD723D9
:100080003C17B7D13877CC2B329595E6241FB14F6A
:100090000A000020410000C84200401C4620BCBEAF
:1000A0004CCA1B0E5AAEC59D7400407A10F35A001C
:1000B000A0724E18090010A5D4E80000E876481791
:1000C0000000E40B54020000CA9A3B000000E1F576
:1000D00005000080969800000040420F000000A03C
:1000E0008601000000102700000000E80300000067
:1000F000006400000000000A000000000001000091
:100100000000002C76D888DC674F0823DFC1DFAE03
:1001100059E1B1B796E5E3E453C63AE651997696CC
:10012000E8E6C28426EB898C9B62ED407C6FFCEF95
:10013000BC9C9F40F2BAA56FA5F490055A2AF75CC3
:10014000936B6CF9676DC11BFCE0E40D47FEF52075
:10015000E6B500D0ED902E0300943577050080843D
:100160001E080000204E0A000000C80C3333333351
:100170000F986E12831141EF8D2114893BE65516BD
:10018000CFFEE6DB18D1844B381BF77C1D901DA4F5
:10019000BBE424203284725E228100C9F124ECA1E8
:1001A000E53D270011241FBECFE5D8E0DEBFCDBF5F
:1001B00011E0A0E6B0E0E6E1F1E502C005900D92A5
:1001C000AC37B107D9F716E0ACE7B1E001C01D923A
:1001D000A232B107E1F70E94FB000C9489280C942D
:1001E00000001AB810BC87E689B91BB886E880BD44
:1001F00088ED8AB90895F8940E94F31B1AB810BCD0
:1002000087E689B91BB886E880BD88ED8AB90E9467
:1002100048040E94730C0E94DF080E94E9080E94B3
:100220007B0C0E94A20C80EF91E060E070E048EB54
:1002300052E021E00E94B01284E891E060E070E0BA
:100240004AEE53E022E00E94B0128BE591E060E0BC
:1002500070E042E553E023E00E94B01281E090E0BC
:100260000E94C310909354038093530381E090E065
:100270000E94C3109093BC028093BB0281E090E087
:100280000E94C3109093F0018093EF0181E090E011
:100290000E94C3109093EC018093EB0180E090E00A
:1002A0000E94C3109093BA028093B9020E946C1B03
:1002B00080E090E00895DF93CF930F92CDB7DEB743
:1002C0000E94810C8823E1F38091B9029091BA02D7
:1002D0000E941B1380E00E94EE070E948C0C882372
:1002E000E1F38091B9029091BA0260E070E0AE0152
:1002F0004F5F5F4F0E94471382E00E94EE0710920B
:100300007C0110927D01DCCFEF92FF920F931F933F
:10031000DF93CF930F92CDB7DEB700E07E01089454
:10032000E11CF11C01C001E08091ED019091EE0112
:1003300060E070E0A7010E94DD17FC0110810E94BF
:100340009B0C81B58F6181BD8981882369F780917C
:10035000BB029091BC020E94A810892B81F0809171
:1003600053039091540360E070E0A7010E9447138B
:100370001CB98091BB029091BC020E941B1380911A
:10038000B9029091BA020E94A810892B69F280915B
:10039000B9029091BA020E941B13013089F001301A
:1003A00018F0023009F610C0103F31F410927D01B0
:1003B00082E00E94EE07B8CF113F09F0B5CFB3CF6E
:1003C00010937D0102E0B0CF10937C0180917D01FC
:1003D000612F0E949B0780E00E94EE0700E0A4CFFF
:1003E0000F931F93DF93CF930F92CDB7DEB7F8949F
:1003F0000E94D90380E090E00E94A20E9093EE014B
:100400008093ED0178940E94600A0E949B0C81B554
:100410008F6181BD82E00E94EE078E010F5F1F4F4A
:100420008091B9029091BA0260E070E0A8010E9448
:1004300047138091B9029091BA020E941B138091D8
:10044000EF019091F00160E070E0A8010E94471375
:100450000E94F107E5CF2F933F932FB720682F938A
:100460000F921F924F935F936F937F938F939F93FE
:10047000AF93BF93EF93FF9380913B04882391F454
:100480002F923F924F925F926F927F928F929F92A4
:10049000AF92BF92CF92DF92EF92FF920F931F9392
:1004A000CF93DF938F5F80933B04C19A8091530376
:1004B000909154030E941B13F8940E94991B809101
:1004C0003B04882391F4DF91CF911F910F91FF900E
:1004D000EF90DF90CF90BF90AF909F908F907F90E4
:1004E0006F905F904F903F902F90FF91EF91BF9151
:1004F000AF919F918F917F916F915F914F911F90DD
:100500000F902F912F772FBF3F912F9118952F93F9
:100510003F932FB720682F930F921F924F935F93B3
:100520006F937F938F939F93AF93BF93EF93FF93BB
:1005300080913B04882391F42F923F924F925F92D7
:100540006F927F928F929F92AF92BF92CF92DF92E3
:10055000EF92FF920F931F93CF93DF938F5F809360
:100560003B048CB180937E01C1988091ED01909104
:10057000EE016EE771E00E94B517F8940E94991B96
:1005800080913B04882391F4DF91CF911F910F91CB
:10059000FF90EF90DF90CF90BF90AF909F908F90A3
:1005A0007F906F905F904F903F902F90FF91EF91D1
:1005B000BF91AF919F918F917F916F915F914F917B
:1005C0001F900F902F912F772FBF3F912F9118954C
:1005D000FA01808392931292129280E8829312928F
:1005E0001292129212921292129262937293129239
:1005F00012921292129212921292129212921292DB
:1006000012921292129212921292129212921292CA
:10061000129212921292129212923197CF01089571
:100620008091F1038F5F8093F103E0913104F091A9
:100630003204808191819EBF8DBFDF91CF911F9148
:100640000F91FF90EF90DF90CF90BF90AF909F9071
:100650008F907F906F905F904F903F902F90FF9181
:10066000EF91BF91AF919F918F917F916F915F912A
:100670004F911F900F902F912FBF3F912F91089571
:100680002F933F932FB72F930F921F924F935F9308
:100690006F937F938F939F93AF93BF93EF93FF934A
:1006A0002F923F924F925F926F927F928F929F9282
:1006B000AF92BF92CF92DF92EF92FF920F931F9370
:1006C000CF93DF938DB79EB7E0913C04F0913D044A
:1006D000918380838091F60380930B04E091310431
:1006E000F0913204F0933D04E0933C0480819181C9
:1006F0009EBF8DBFDF91CF911F910F91FF90EF9023
:10070000DF90CF90BF90AF909F908F907F906F9031
:100710005F904F903F902F90FF91EF91BF91AF91DD
:100720009F918F917F916F915F914F911F900F904B
:100730002F912FBF3F912F9108958DB79EB7E091D4
:100740003C04F0913D040696918380838091F603EA
:1007500080930B04E0913104F0913204F0933D0456
:10076000E0933C04808191819EBF8DBFDF91CF914A
:100770001F910F91FF90EF90DF90CF90BF90AF90BF
:100780009F908F907F906F905F904F903F902F90B1
:10079000FF91EF91BF91AF919F918F917F916F9159
:1007A0005F914F911F900F902F912FBF3F912F91ED
:1007B000089589B78F7389BF8DE085BD14BC8CE720
:1007C00083BD88B7806C88BF89B7806889BF08956A
:1007D0000895089508950895089508950895089531
:1007E00008952F933F932FB720682F930F921F9256
:1007F0004F935F936F937F938F939F93AF93BF9329
:10080000EF93FF9380913B04882391F42F923F92C2
:100810004F925F926F927F928F929F92AF92BF9210
:10082000CF92DF92EF92FF920F931F93CF93DF93BC
:100830008F5F80933B040E94221BF8940E94991BB7
:1008400080913B04882391F4DF91CF911F910F9108
:10085000FF90EF90DF90CF90BF90AF909F908F90E0
:100860007F906F905F904F903F902F90FF91EF910E
:10087000BF91AF919F918F917F916F915F914F91B8
:100880001F900F902F912F772FBF3F912F91189589
:1008900082EA8FBD8AE18EBD84E089BF80E197E264
:1008A00097BD86BD1BBC1ABC19BC18BC08957093BB
:1008B0008201609381019093800180937F01409336
:1008C000EB0308952F933F932FB720682F930F9238
:1008D0001F924F935F936F937F938F939F93AF93E9
:1008E000BF93EF93FF9380913B04882391F42F9261
:1008F0003F924F925F926F927F928F929F92AF92B0
:10090000BF92CF92DF92EF92FF920F931F93CF93FC
:10091000DF938F5F80933B0480917F0190918001F2
:100920009BBD8ABD809181019091820199BD88BD56
:100930008091EB0380618093EB038091EB038062F5
:100940008093EB038091EB0382BB8091EF01909148
:10095000F0010E941B13F8940E94991B80913B04A4
:10096000882391F4DF91CF911F910F91FF90EF9029
:10097000DF90CF90BF90AF909F908F907F906F90BF
:100980005F904F903F902F90FF91EF91BF91AF916B
:100990009F918F917F916F915F914F911F900F90D9
:1009A0002F912F772FBF3F912F9118952F923F9224
:1009B0004F925F926F927F928F929F92AF92BF926F
:1009C000CF92DF92EF92FF920F931F93DF93CF931B
:1009D000CDB7DEB760970FB6F894DEBF0FBECDBFC0
:1009E0006F83788789879A872B873C874D875E87B7
:1009F00027013801988A8F86C801B70120E030E0CE
:100A000040E85FE30E949B2718165CF40F2EF0E08D
:100A10004F2EF0E05F2EF0E86F2EFFE37F2EF02DDB
:100A200014C0C801B70120E030E040E85FEB0E944D
:100A30005126882354F40F2EF0E04F2EF0E05F2E65
:100A4000F0E86F2EFFEB7F2EF02DC601B50120E000
:100A500030E040E85FE30E949B2718165CF40F2EFD
:100A6000F0E0AF2EF0E0BF2EF0E8CF2EFFE3DF2E58
:100A7000F02D14C0C601B50120E030E040E85FEB86
:100A80000E945126882354F40F2EF0E0AF2EF0E0A0
:100A9000BF2EF0E8CF2EFFEBDF2EF02DE090B70158
:100AA000F090B8010091B9011091BA01E092B30140
:100AB000F092B4010093B5011093B601C601B501DF
:100AC000A30192010E94EC252AE132E646E850E4B7
:100AD0000E949F276B837C838D839E836093B701E5
:100AE0007093B8018093B9019093BA01C601B50122
:100AF000A30192010E94ED2520E030E040E05FE399
:100B00000E949F273B014C016093AF017093B0019D
:100B10008093B1019093B2016B817C818D819E8124
:100B2000A80197010E94ED252AE037ED43E25BE33F
:100B30000E949F272091BF013091C0014091C101C7
:100B40005091C2010E94ED257B018C012BED3FE00D
:100B500049EC50E40E949B2718164CF4C801B701D9
:100B60002BED3FE049EC50E40E94EC2512C0C80197
:100B7000B70120E030E040E050E00E945126882399
:100B800054F4C801B7012BED3FE049EC50E40E945A
:100B9000ED257B018C01E092BF01F092C001009332
:100BA000C1011093C201C801B7012BED3FE049E438
:100BB00050E40E94ED259B01AC016B857C858D8501
:100BC0009E850E949B2788235CF06B857C858D85A4
:100BD0009E852BED3FE049EC50E40E94EC251CC0C3
:100BE000C801B7012BED3FE049E450E40E94EC2539
:100BF0009B01AC016B857C858D859E850E9451266D
:100C0000181674F06B857C858D859E852BED3FE0F5
:100C100049EC50E40E94ED256B877C878D879E8789
:100C20006B857C858D859E85A80197010E94EC25AA
:100C30005B016C016093BB017093BC018093BD01AB
:100C40009093BE01C401B30128EE31EB49E750ECAB
:100C50000E949F277B018C016F81788589859A8509
:100C600024EF38ED4CE950E40E949F279B01AC0132
:100C7000C801B7010E94ED253B014C01C601B50139
:100C800021E237EA44E95FE30E949F277B018C0160
:100C90006B817C818D819E8128E137EA44E15FEBA5
:100CA0000E949F279B01AC01C801B7010E94ED255E
:100CB0005B016C0120E030E040E050E00E949B27A7
:100CC00087FF03C00FEF1FEF02C001E010E0109399
:100CD000A6010093A501C401B30120E030E040E08B
:100CE00050E00E949B2787FF05C02FEF3FEF3A831C
:100CF000298304C081E090E09A838983A981BA8125
:100D0000B093A401A093A301B801882777FD809533
:100D1000982F0E94EB261B012C01A60195010E9431
:100D20009F277B018C0120E030E040E85FE30E94D8
:100D30009B2718161CF46201510114C0C801B701A9
:100D40002DEC3CEC4CE45DE30E945126181654F067
:100D50000F2EF0E0AF2EF0E0BF2EF0E0CF2EF0E04F
:100D6000DF2EF02DA092A701B092A801C092A90198
:100D7000D092AA01E981FA81BF01882777FD809589
:100D8000982F0E94EB267B018C01A40193010E9405
:100D90009F2720E030E040E85FE30E949B27181681
:100DA00014F437014801C201B101A60195010E9466
:100DB0009F279B01AC0160E070E080E89FE30E9408
:100DC000EC251B012C01C801B701A40193010E946D
:100DD0009F27A20191010E949B27181644F4C80185
:100DE000B701A20191010E949F273B014C01609233
:100DF000AB017092AC018092AD019092AE01C40142
:100E0000B301A60195010E94ED25ADA1BEA16D9390
:100E10007D938D939C931397C401B301A601950113
:100E20000E94EC25EF85F889608371838283938328
:100E3000ADA1BEA1ED90FD900D911C91C801B7012F
:100E400024EA30E74DE75FE30E949B2718165CF425
:100E50000F2EF4EAEF2EF0E7FF2EFDE70F2FFFE352
:100E60001F2FF02D14C0C801B70124EA30E74DE769
:100E70005FEB0E945126882354F40F2EF4EAEF2EE4
:100E8000F0E7FF2EFDE70F2FFFEB1F2FF02DEDA159
:100E9000FEA1E082F18202831383AF85B889ED90D1
:100EA000FD900D911C91C801B70124EA30E74DE790
:100EB0005FE30E949B2718165CF40F2EF4EAEF2ED6
:100EC000F0E7FF2EFDE70F2FFFE31F2FF02D14C0DB
:100ED000C801B70124EA30E74DE75FEB0E945126D5
:100EE000882354F40F2EF4EAEF2EF0E7FF2EFDE7EF
:100EF0000F2FFFEB1F2FF02DEF85F889E082F18295
:100F00000283138360960FB6F894DEBF0FBECDBF89
:100F1000CF91DF911F910F91FF90EF90DF90CF90D5
:100F2000BF90AF909F908F907F906F905F904F9009
:100F30003F902F9008950F931F93082F162F893CF1
:100F400008F048C0653B08F045C08091840108174F
:100F500029F4809185016817C9F43AC0602F70E0C8
:100F600064567040882777FD8095982F0E94EB2665
:100F700020E030E048EC52E40E94552660938B015B
:100F800070938C0180938D0190938E0180918501E7
:100F90001817D1F0612F70E080E090E00E94E92600
:100FA0002BED3FE049E450E40E949F2720E030E031
:100FB00044EB52E40E94552660938F017093900198
:100FC0008093910190939201009384011093850185
:100FD00080E001C081E01F910F91089580938A0104
:100FE00008958F929F92AF92BF92CF92DF92EF922D
:100FF000FF920F931F9380918A01882319F181300A
:1010000011F4DD2402C0FCECDF2E80E090E0A0E0D3
:10101000B0E080939B0190939C01A0939D01B093BD
:101020009E0180939F019093A001A093A101B09392
:10103000A2011092EF031092EE031092ED031092B2
:10104000EC03A7C087E991E063E971E00E94EB0837
:1010500000D060918B0170918C0180918D019091F5
:101060008E0120918F01309190014091910150911A
:101070009201E0909301F0909401009195011091FC
:101080009601A0909701B0909801C0909901D090DE
:101090009A01EFE9F1E0ADB7BEB71296FC93EE937B
:1010A0001197EBE98E2EE1E09E2E0E94D604E0908F
:1010B0009B01F0909C0100919D0110919E010F9069
:1010C0000F90C801B70120E030E040E050E00E94FE
:1010D0005126882374F498E0D92ED801C701B0585E
:1010E00080939B0190939C01A0939D01B0939E01DE
:1010F00002C084E0D82EE0909F01F090A001009102
:10110000A1011091A201C801B70120E030E040E048
:1011100050E00E945126882384F4BFEBDB2280E854
:10112000D82AD801C701B05880939F019093A0019D
:10113000A093A101B093A20104C0A0E4DA2ABFE702
:10114000DB2260919F017091A0018091A10190919B
:10115000A20120E030E44CE156E40E949F270E9467
:10116000BD267093EF036093EE0360919B01709135
:101170009C0180919D0190919E0120E030E44CE122
:1011800056E40E949F270E94BD267093ED03609352
:10119000EC036091EC037091ED038091EE0390916C
:1011A000EF034D2D0E9457041F910F91FF90EF9078
:1011B000DF90CF90BF90AF909F908F90089591E077
:1011C00097B98FEA86B99093C30180B78F7080BFBB
:1011D0000895369A08954F925F926F927F928F9200
:1011E0009F92AF92BF92CF92DF92EF92FF920F93B6
:1011F0001F93CF93DF93EC012B01F8942091D00142
:101200003091D1014091D2015091D3016090CC0135
:101210007090CD018090CE019090CF016091C80177
:101220007091C9018091CA019091CB01A090C40135
:10123000B090C501C090C601D090C701789497FFC7
:101240001BC00E9402286091E7017091E801809123
:10125000E9019091EA01620F731F841F951F0E949C
:10126000EB267B018C0160916E0070916F00809184
:101270007000909171001CC00E9402288091E301CF
:101280009091E401A091E501B091E601281B390B92
:101290004A0B5B0BCA01B9010E94EB267B018C0152
:1012A00060916A0070916B0080916C0090916D006C
:1012B0000E94EB269B01AC01C801B7010E94552694
:1012C000E62F2E2F372F482F592FC901DA01888397
:1012D0009983AA83BB83D7FE1FC0C601B501A401B1
:1012E00093010E9402286091DF017091E0018091DA
:1012F000E1019091E201620F731F841F951F0E940C
:10130000EB267B018C0160916600709167008091F3
:1013100068009091690020C0C601B501A401930145
:101320000E9402288091DB019091DC01A091DD01F7
:10133000B091DE01281B390B4A0B5B0BCA01B901C6
:101340000E94EB267B018C0160916200709163002A
:1013500080916400909165000E94EB269B01AC0196
:10136000C801B7010E945526E62F2E2F372F482F90
:10137000592FC901DA01F20180839183A283B383DB
:101380001092C8011092C9011092CA011092CB01AB
:101390001092C4011092C5011092C6011092C701AB
:1013A0001092CC011092CD011092CE011092CF017B
:1013B0001092D0011092D1011092D2011092D3015B
:1013C000DF91CF911F910F91FF90EF90DF90CF9021
:1013D000BF90AF909F908F907F906F905F904F9055
:1013E00008956F927F928F929F92AF92BF92CF9209
:1013F000DF92EF92FF920F931F934C013B01F89401
:101400002091D0013091D1014091D2015091D3016E
:10141000A090CC01B090CD01C090CE01D090CF0172
:101420006091C8017091C9018091CA019091CB016E
:10143000E090C401F090C5010091C6011091C70170
:1014400078940E940228F4012083318342835383DD
:10145000C801B701A60195010E940228F30120836B
:101460003183428353831092C8011092C9011092B4
:10147000CA011092CB011092C4011092C5011092C2
:10148000C6011092C7011092CC011092CD011092AA
:10149000CE011092CF011092D0011092D101109282
:1014A000D2011092D3011F910F91FF90EF90DF9026
:1014B000CF90BF90AF909F908F907F906F90089546
:1014C0001F9319BE1092D9011092DA01DC9A14E42C
:1014D00012BB8091CC019091CD01A091CE01B09131
:1014E000CF018097A105B105A4F31BBC1ABC19BCA0
:1014F00018BC8AE690E062E670E00E94F1098091F3
:10150000CC019091CD01A091CE01B091CF01CC97AB
:10151000A105B105A4F38AE690E062E670E00E94BE
:10152000F109DC981774146412BB1BBC1ABC19BCFB
:1015300018BC8091CC019091CD01A091CE01B091C9
:10154000CF018097A105B105A4F383EE91E06BED87
:1015500071E00E94F1098091CC019091CD01A091A0
:10156000CE01B091CF01CC97A105B105A4F383EED4
:1015700091E06BED71E00E94F109DC9A1F7C186824
:101580001B7A12BB8091CC019091CD01A091CE012C
:10159000B091CF018097A105B105A4F31BBC1ABC83
:1015A00019BC18BC8EE690E066E670E00E94F10976
:1015B0008091CC019091CD01A091CE01B091CF014D
:1015C000CC97A105B105A4F38EE690E066E670E045
:1015D0000E94F109DC981F7C18681B7A12BB1BBCA7
:1015E0001ABC19BC18BC8091CC019091CD01A0917E
:1015F000CE01B091CF018097A105B105A4F387EE8C
:1016000091E06FED71E00E94F1098091CC01909121
:10161000CD01A091CE01B091CF01CC97A105B1052C
:10162000A4F387EE91E06FED71E00E94F10994E080
:1016300099BFDC9888E08093D9019093DA0180917A
:101640006A0090916B00A0916C00B0916D002091A8
:10165000E3013091E4014091E5015091E601821BE4
:10166000930BA40BB50B80936A0090936B00A0932F
:101670006C00B0936D008091620090916300A09126
:101680006400B09165002091DB013091DC01409154
:10169000DD015091DE01821B930BA40BB50B8093EF
:1016A000620090936300A0936400B0936500809102
:1016B0006E0090916F00A0917000B0917100209128
:1016C000E7013091E8014091E9015091EA01821B64
:1016D000930BA40BB50B80936E0090936F00A093B7
:1016E0007000B09371008091660090916700A091A6
:1016F0006800B09169002091DF013091E0014091D4
:10170000E1015091E201821B930BA40BB50B809376
:10171000660090936700A0936800B09369001F91E2
:1017200008952F933F932FB720682F930F921F9206
:101730004F935F936F937F938F939F93AF93BF93D9
:10174000EF93FF9380913B04882391F42F923F9273
:101750004F925F926F927F928F929F92AF92BF92C1
:10176000CF92DF92EF92FF920F931F93CF93DF936D
:101770008F5F80933B0487B18095817087B9389BD8
:1017800044C08091D0019091D101A091D201B0913B
:10179000D3010196A11DB11D8093D0019093D10179
:1017A000A093D201B093D301E090C801F090C90199
:1017B0000091CA011091CB0199B38091D90189237D
:1017C00049F484B195B19C0140E050E03370407021
:1017D00050700EC084B195B1A0E0B0E09370A070DD
:1017E000B07022273327A901281B390B4A0B5B0B4A
:1017F0002E0D3F1D401F511F2093C8013093C9017A
:101800004093CA015093CB0143C08091CC01909189
:10181000CD01A091CE01B091CF010196A11DB11DC6
:101820008093CC019093CD01A093CE01B093CF01D2
:10183000E090C401F090C5010091C6011091C7016C
:1018400099B38091DA01892349F484B195B19C015F
:1018500040E050E03370407050700EC084B195B1DC
:10186000A0E0B0E09370A070B07022273327A901E8
:10187000281B390B4A0B5B0B2E0D3F1D401F511FC0
:101880002093C4013093C5014093C6015093C70112
:10189000F8940E94991B80913B04882391F4DF9176
:1018A000CF911F910F91FF90EF90DF90CF90BF905D
:1018B000AF909F908F907F906F905F904F903F90F0
:1018C0002F90FF91EF91BF91AF919F918F917F9159
:1018D0006F915F914F911F900F902F912F772FBF96
:1018E0003F912F9118958FEF87BB9EEF91BB90E1B1
:1018F0009ABB88BB0895C79AC69882B38C6C82BB8A
:101900000895CE9B02C080E00895C69AC79880E0F3
:101910000E94EE0781E00895CF9B02C080E0089509
:10192000C79AC19AC69882B38C6C82BB82E00E942F
:10193000EE0781E0089581B5806181BD81B5877F23
:1019400081BD089587E081BD08958091F1038130C4
:1019500039F480913B048F3F19F08F5F80933B04F3
:10196000089584E091E00895FF920F931F93CF9321
:10197000DF93EC018B01F42E3981E32FF0E0E65880
:10198000FF4F2081422F50E0FA01EE58FF4F708147
:10199000DC01A40FB51F16969C911697E92FF0E075
:1019A000E658FF4F8081E82FF0E0EE58FF4F60814E
:1019B000220F220F220F280F862F8095892316963B
:1019C0008C93882321F4872F809538233983E22F45
:1019D000F0E0EE0FFF1FEE5FF94F0190F081E02D78
:1019E0001486138617821682118700878F2D8095A3
:1019F000958589238587882359F480913504872B21
:101A000080933504FA01EA5CFB4F8081682B608388
:101A1000822FDF91CF911F910F91FF900895CF9367
:101A2000DF93EC01A0913C04B0913D0417969C9388
:101A30008E93169750968C915097282F30E05196A0
:101A40004C915197F901EA5CFB4F842F809590816E
:101A500089238083882349F452969C9152979095CC
:101A600080913504892380933504FE01E20FF31F32
:101A70008681842B8683898152969C91892B8983C8
:101A8000DF91CF910895CF93DF93EC01A0913C04B7
:101A9000B0913D0450968C915097FE01E80FF11DD6
:101AA00051968C91519780959681892386838823BE
:101AB00039F452969C915297909589818923898314
:101AC0001D961C921D9717961C921E921697DF91D9
:101AD000CF910895FC011182168217820895FC01AE
:101AE000D9018081853021F081E08C9380E00895D8
:101AF00047FD02C020E002C04F7721E01C920F9307
:101B00000FB70F93F894413009F43CC0413040F1D5
:101B1000423021F0433009F046C012C09381862F35
:101B20008923861731F4213031F46095962393830D
:101B300002C088E98C9383810F910FBF0F910895A4
:101B40008381682331F0213031F460956823638309
:101B500002C088E98C9383810F910FBF0F91089584
:101B60009381892F80958623861729F4213029F4C3
:101B7000962B938302C088E98C9383810F910FBFCA
:101B80000F9108959381892F8095862329F0213024
:101B900029F4892B838302C088E98C9383810F9178
:101BA0000FBF0F9108950F910FBF0F9187E98C938D
:101BB00080E00895282FDB0180913B04882329F0E1
:101BC0008DE88C93E0E0F0E01FC00F930FB70F9308
:101BD000F894E0910006F0910106309781F0818140
:101BE0009281909301068093000685E08083238391
:101BF000128211820F910FBF0F911C9205C00F919D
:101C00000FBF0F918AE98C93CF0108950F930FB7FF
:101C10000F93F8940F930FB70F93F894E0913C044F
:101C2000F0913D0482850895FC01DB0180818530BF
:101C300021F081E08C9380E008950F930FB70F930C
:101C4000F89483810F910FBF0F911C920895CF9349
:101C5000DF93EC01AC81BD811C961C921E921B97F8
:101C60001A966C931A971D968C911D978F7D1D96D1
:101C70008C931D97882311F080E014C08091350467
:101C800052969C915297892B809335045096EC91F3
:101C90005097F0E0EA5CFB4F808151969C91892B34
:101CA000808381E0EA81FB81A881B981309759F472
:101CB000EE81FF81B283A183109769F013961C9285
:101CC0001E92129708C0B183A083109721F013963B
:101CD000FC93EE931297DF91CF910895CF93DF930A
:101CE000FC01C281D381A081B181209761F406807B
:101CF000F781E02DB283A183109769F013961C92AF
:101D00001E92129708C0B983A883109721F01396EA
:101D1000DC93CE931297DF91CF910895FC018081DF
:101D2000813019F020E030E00BC00F930FB70F9314
:101D3000F89424813581158214820F910FBF0F9181
:101D4000C90108959C0180913B04882319F0E0E0CB
:101D5000F0E01EC00F930FB70F93F894E091380492
:101D6000F0913904309731F0848195819093390452
:101D7000809338040F910FBF0F91309749F081E0A5
:101D80008083138212823583248311821682178204
:101D9000CF010895FC01DB018081813011F081E0E9
:101DA00008950F930FB70F93F894818114968C9335
:101DB0001497868112968C931297878113968C9331
:101DC0001397848195818D939C930F910FBF0F91F1
:101DD00080E00895CF93DF93DC01EB0180913B0419
:101DE000882311F082E004C08C91843019F081E0E6
:101DF000888325C00F930FB70F93F89412962D91F7
:101E00003C9113972F3FB9F4E0913C04F0913D04CD
:101E1000868590E02070822B932B13969C938E9353
:101E200012971596FC93EE9314970F910FBF0F9195
:101E3000188281E005C00F910FBF0F91188280E0DA
:101E4000DF91CF910895CF93DF93282FEB018091FD
:101E50003B04882311F08DE812C00F930FB70F9346
:101E6000F894E22FF0E0EE0FFF1FEE5FF94F808154
:101E70009181892B41F00F910FBF0F9188E28883E8
:101E8000A0E0B0E034C081E090E091838083A09135
:101E90003804B0913904109741F4118210820F91E7
:101EA0000FBF0F9184E0888322C014968D919C917E
:101EB000159790933904809338040F910FBF0F91B9
:101EC00084E08C93922F80E08F6F13969C938E9377
:101ED000129715961C921E92149711961C921197A8
:101EE00016961C92169717961C9217971882CD017A
:101EF000DF91CF910895DC01FB0180913B048823A1
:101F000011F086E008958C91843011F081E00895FD
:101F10000F930FB70F93F89412969C911297139604
:101F20008C911397858394839F3F19F481E0838379
:101F300001C0138211968C911197828316968C9111
:101F40001697808317968C9181830F910FBF0F9105
:101F500080E00895CF93DF93FC01EB018081823014
:101F600029F081E0888320E030E033C00F930FB781
:101F70000F93F894A481B5811C968D919C911D9727
:101F8000009701F11896ED91FC91199721913191EB
:101F90001996FC93EE93189701971D969C938E9338
:101FA0001C9714968D919C911597E817F90741F4A9
:101FB00012968D919C91139719969C938E931897D6
:101FC000188204C08FE1888320E030E00F910FBFBA
:101FD0000F91C901DF91CF9108959C0180913B043D
:101FE000882309F05FC00F930FB70F93F894A09167
:101FF0003804B0913904109741F014968D919C915A
:10200000159790933904809338040F910FBF0F9167
:10201000109709F449C00F930FB70F93F894E0910C
:102020003304F0913404309771F180819181909361
:102030003404809333040F910FBF0F9133832283B5
:10204000CB01880F991F820F931F95838483378359
:10205000268331872087738762871586148682E0FE
:102060008C9313961C921E9212971596FC93EE93E6
:10207000149711961C92119716961C921697179604
:102080001C92179711C080913804909139041596CD
:102090009C938E931497B0933904A09338040F91B6
:1020A0000FBF0F91A0E0B0E0CD010895FC010F93A8
:1020B0000FB70F93F8940480F581E02D828193810E
:1020C0009783868391878087158614860F910FBF2B
:1020D0000F9180E00895CF93DF93FC01DB018081B5
:1020E000823011F081E031C00F930FB70F93F89455
:1020F000818118968C931897868116968C931697E3
:10210000878117968C931797C481D5818C859D857F
:10211000892B41F0E885F9858081918111969C9306
:102120008E9303C011961C921E928C859D851396EA
:102130009C938E9312978A859B8515969C938E937C
:1021400014970F910FBF0F9180E0DF91CF91089509
:10215000FC018081833019F020E030E012C00F9341
:102160000FB70F93F894228133812115310531F097
:1021700021503040338322832F5F3F4F0F910FBF99
:102180000F91C90108959C0180913B04882319F0A7
:10219000E0E0F0E01EC00F930FB70F93F894E091CA
:1021A0003804F0913904309731F08481958190930F
:1021B0003904809338040F910FBF0F91309749F085
:1021C00083E08083338322831582148211821682F6
:1021D0001782CF010895FC01DB018081833011F06B
:1021E00081E008950F930FB70F93F89481811496AF
:1021F0008C931497868112968C93129787811396ED
:102200008C931397828193818D939C930F910FBF31
:102210000F9180E008950F930FB70F93F8948F3FBD
:1022200029F4E0913C04F0913D048685E82FF0E02C
:10223000EE0FFF1FEE5FF94F0190F081E02D309718
:1022400029F40F910FBF0F9189E20895DB0183E11B
:1022500001900D928150E1F70F910FBF0F910895FA
:10226000E5E1F4E08CE1DF011D928A95E9F73E9605
:10227000F0931604E09315043E97109224041092F4
:102280002304F0933404E09333040895E7EFF3E07C
:1022900084E1DF011D928A95E9F7CF01049610824F
:1022A00092838183FC01B4E087309B07B1F71082F1
:1022B000128211827097F0930106E0930006089550
:1022C0001F93CF93DF93182F0F930FB70F93F894AB
:1022D000C0911204D0911304209709F45AC08A8146
:1022E0009B8190931304809312040F910FBF0F9161
:1022F000798368831E871D861C861B86E12FE695E1
:10230000E695E695E88BF0E0EE58FF4F80818A8BEA
:10231000E12FE770EF87F0E0EE58FF4F8081898B67
:102320001F821E8219861886CE010E94EF03CE01FD
:102330000E94EA030F930FB70F93F894E12FF0E098
:10234000EE0FFF1FEE5FF94FD183C083E0910C04C5
:10235000F0910D04FB83EA831D821C82309711F0FB
:10236000D583C483D0930D04C0930C0480913504AD
:102370009A89892B80933504E889F0E0EA5CFB4F69
:1023800080819989892B80830F910FBF0F9180E005
:1023900004C00F910FBF0F9186E4DF91CF911F9181
:1023A00008950F930FB70F93F8948091F2039091D3
:1023B000F303A091F403B091F5030196A11DB11DA3
:1023C0008093F2039093F303A093F403B093F50387
:1023D0000F910FBF0F910E94EC03E3CF0F930FB744
:1023E0000F93F89480913B04882309F03FC08091BB
:1023F000F0038823D9F5E0913504F0E0E658FF4F6B
:102400008081E82FF0E0EA5CFB4FE081F0E0E658E5
:10241000FF4F982F990F990F990F8081980F9093E4
:10242000F60380910B04981709F1E92FF0E0EE0F05
:10243000FF1FEE5FF94F808191819093320480936A
:10244000310480910E0490910F04A0911004B0917A
:1024500011040196A11DB11D80930E0490930F04E9
:10246000A0931004B09311040E9440030F910FBF7A
:102470000F9108958F3010F08AE208950F930FB7EF
:102480000F93F894E82FF0E0EE0FFF1FEE5FF94F87
:10249000A081B181109791F11B968D919C911C9711
:1024A000892B39F11C961C921E921B971D968C91BC
:1024B0001D9783FD19C08091350452969C915297C7
:1024C000892B809335045096EC915097F0E0EA5CAC
:1024D000FB4F808151969C91892B80830F910FBF78
:1024E0000F910E94EE1103C00F910FBF0F9180E07A
:1024F00008950F910FBF0F9180E508950F910FBFC1
:102500000F918BE008959C01009749F10F930FB74D
:102510000F93F894A0913C04B0913D045096EC9137
:102520005097F0E0EA5CFB4F51968C915197809563
:10253000908189238083882349F452969C915297F5
:102540009095809135048923809335041C963C93A3
:102550002E931B970F910FBF0F910E94EE110895BC
:10256000AF92BF92CF92DF92EF92FF920F931F93A1
:10257000CF93DF93DC01122F0F930FB70F93F894D3
:10258000C22FD0E0FE01EE0FFF1FEE5FF94F8081FA
:102590009181892B09F03FC081E090E09183808395
:1025A0000F910FBF0F91CD0120E030E00E94E802B3
:1025B000BC01812F40E050E020E030E0EE24FF2419
:1025C0008701CC24DD24AA24BB240E946011182F8B
:1025D000882399F40F930FB70F93F8948091140404
:1025E0008F5F809314040F910FBF0F918091F103BF
:1025F0008130A9F40E94EE1112C00F930FB70F9310
:10260000F894CC0FDD1FCE5FD94F198218820F913D
:102610000FBF0F9104C00F910FBF0F9118E2812FD0
:10262000DF91CF911F910F91FF90EF90DF90CF90AE
:10263000BF90AF900895FC018081833011F081E05C
:1026400008950F930FB70F93F8948181882361F059
:10265000CF0160E070E041E00E94B40C0F910FBF29
:102660000F910E94EE110CC0828193812FEF8F3F5A
:10267000920741F00196938382830F910FBF0F91D0
:1026800080E008950F910FBF0F9182E308950F939B
:102690001F93CF93DF93EC018A0180913B04882341
:1026A00011F082E080C08881833011F081E07BC02E
:1026B0000F930FB70F93F8948A819B81009739F09D
:1026C00001979B838A830F910FBF0F9176C0A091D2
:1026D0003C04B0913D041D968C911D9781601D9620
:1026E0008C931D971C967C936E931B971796DC9387
:1026F000CE93169750968C915097282F30E0519694
:102700004C915197F901EA5CFB4F842F80959081A1
:1027100089238083882349F452969C9152979095FF
:1027200080913504892380933504FE01E20FF31F65
:102730008681842B8683898152969C91892B8983FB
:102740000F910FBF0F910E94EE110F930FB70F93D0
:10275000F894A0913C04B0913D041D968C911D9776
:1027600080FF24C050968C915097FE01E80FF11D18
:1027700051968C91519780959681892386838823E1
:1027800039F452969C915297909589818923898337
:102790001D961C921D9717961C921E9216970F91CC
:1027A0000FBF0F918AE0F801808309C017961C9231
:1027B0001E9216970F910FBF0F91F8011082DF91B3
:1027C000CF911F910F9108950F931F93CF93DF9394
:1027D000EC018B018881823011F081E076C00F938B
:1027E0000FB70F93F89489818823B1F040FD06C09C
:1027F00009C0CE01B80144E00E94B40C898188234D
:10280000C1F704C0CE0144E00E94B40C0F910FBF89
:102810000F910E94EE1158C0AC81BD811C962D9184
:102820003C911D971A968D919C911B9728173907FB
:1028300028F00F910FBF0F918EE147C041FF1FC0DD
:1028400018962D913C91199712968D919C91139702
:102850002817390741F414968D919C911597199674
:102860009C938E9318971896ED91FC911997329737
:102870001996FC93EE9318971183008319C016964E
:10288000ED91FC911797619371931796FC93EE93DA
:10289000169714968D919C911597E817F90741F4B6
:1028A00012968D919C91139717969C938E931697E1
:1028B0001C968D919C911D9701961D969C938E93CD
:1028C0001C970F910FBF0F9180E0DF91CF911F9167
:1028D0000F910895FC018081823011F081E008950C
:1028E0000F930FB70F93F8948181882359F0CF018C
:1028F00044E00E94B40C0F910FBF0F910E94EE11A3
:1029000080E00895A481B5811C962D913C911D977E
:102910001A968D919C911B972817390728F00F91D3
:102920000FBF0F918EE108951696ED91FC911797C8
:10293000619371931796FC93EE9316972F5F3F4F19
:102940001D963C932E931C9714968D919C911597F0
:10295000E817F90741F412968D919C9113971796F9
:102960009C938E9316970F910FBF0F9180E008955F
:102970000F931F93CF93DF93EC018A0180913B0467
:10298000882311F082E09AC00F930FB70F93F89449
:10299000AC81BD811C968D919C911D97009711F182
:1029A0001896ED91FC911997219131911996FC930C
:1029B000EE93189701971D969C938E931C971496EF
:1029C0008D919C911597E817F90741F412968D9116
:1029D0009C91139719969C938E9318970F910FBF04
:1029E0000F9183C0A0913C04B0913D041D968C9141
:1029F0001D9784601D968C931D971C967C936E93F7
:102A00001B971796DC93CE93169750968C91509700
:102A1000282F30E051964C915197F901EA5CFB4F19
:102A2000842F8095908189238083882349F452964E
:102A30009C91529790958091350489238093350419
:102A4000FE01E20FF31F8681842B868389815296D3
:102A50009C91892B89830F910FBF0F910E94EE11DA
:102A60000F930FB70F93F894A0913C04B0913D04DD
:102A70001D968C911D9782FF26C050968C91509781
:102A8000FE01E80FF11D51968C915197809596812A
:102A900089238683882339F452969C915297909586
:102AA0008981892389831D961C921D9717961C92F4
:102AB0001E9216970F910FBF0F918AE0F801808345
:102AC00020E030E014C018962D913C91199719968A
:102AD0001C921E9218971D961C921D9717961C9279
:102AE0001E9216970F910FBF0F91F8011082C90126
:102AF000DF91CF911F910F910895CF93DF93EC0158
:102B000080913B04882311F085E09FC08881843048
:102B100011F081E09AC00F930FB70F93F8943A81A8
:102B20004B81A0913C04B0913D048C819D81A817FC
:102B3000B90729F00F910FBF0F9188E786C01E9645
:102B40008C911E97841709F04BC05096EC915097CA
:102B5000F0E0EA5CFB4F51968C9151978095908103
:102B600089238083882349F452969C9152979095AB
:102B7000809135048923809335041E963C931E97DB
:102B8000E32FE695E695E6955096EC935097F0E0A6
:102B9000EE58FF4F208152962C935297E32FE77007
:102BA0001F96EC931F97F0E0EE58FF4F90815196DF
:102BB0009C93519780913504822B809335045096D5
:102BC000EC915097F0E0EA5CFB4F8081982B90836A
:102BD000E32FF0E0EE0FFF1FEE5FF94FB183A0830C
:102BE000E42FF0E0EE0FFF1FEE5FF94F81E090E081
:102BF0009183808389818823E9F0CE0160E070E0D1
:102C000040E10E94B40CE82FF0E08A819B81807043
:102C10008E2B9F2B9B838A83EE0FFF1FEE5FF94F56
:102C2000808191819D838C830F910FBF0F910E94B2
:102C3000EE110AC08A819B818F6F9B838A831D82DC
:102C40001C820F910FBF0F9180E0DF91CF9108950B
:102C5000EF92FF920F931F93CF93DF938C017A0132
:102C600080913B04882311F082E030C1F80180811B
:102C7000843011F081E02AC10F930FB70F93F894BD
:102C8000F80182819381282F8F3FC1F48070938354
:102C90008283E0913C04F0913D04268530E0282BAE
:102CA000392BD80113963C932E9312971596FC93CB
:102CB000EE9314970F910FBF0F9112C1592FF80186
:102CC000A481B5811E968C911E97891709F48DC039
:102CD000E0913C04F0913D048685821708F085C0A0
:102CE00050968C915097282F30E0F901EA5CFB4F09
:102CF000408151969C915197842F892389F0892F87
:102D0000809584238083882349F452969C9152971E
:102D100090958091350489238093350491E018C003
:102D20001696CD91DC911797209789F0FE01E20F5E
:102D3000F31F892F8095968189238683882339F410
:102D400052969C915297909589818923898390E02E
:102D50001E965C931E97E52FE695E695E6955096B0
:102D6000EC935097F0E0EE58FF4F208152962C9351
:102D70005297E52FE7701F96EC931F97F0E0EE58FF
:102D8000FF4F808151968C935197913091F48091AF
:102D90003504822B809335045096EC915097F0E0E7
:102DA000EA5CFB4F808151969C915197892B8083DF
:102DB00014C01696ED91FC911797309771F08181B0
:102DC000822B818350968C915097E80FF11D86815C
:102DD00051969C915197892B8683E52FF0E0EE0F59
:102DE000FF1FEE5FF94FB183A083A0913C04B09127
:102DF0003D041D968C911D9780611D968C931D97A7
:102E00001C967C936E931B9717961C930E931697A4
:102E10005096EC915097F0E0EA5CFB4F51968C9104
:102E200051978095908189238083882349F4529615
:102E30009C91529790958091350489238093350415
:102E400050968C915097F801E80FF11D86815196AC
:102E50009C915197892B8683F801818152969C9190
:102E6000892B81830F910FBF0F910E94EE110F9359
:102E70000FB70F93F894A0913C04B0913D041D96B8
:102E80008C911D9784FF25C050968C915097F80126
:102E9000E80FF11D51968C91519780959681892369
:102EA0008683882341F452969C9152979095F8011D
:102EB0008181892381831D961C921D9717961C92F0
:102EC0001E9216970F910FBF0F918AE0D7018C9336
:102ED00009C017961C921E9216970F910FBF0F9163
:102EE000F7011082DF91CF911F910F91FF90EF902A
:102EF00008950F931F93CF93DF93EC018B0188818B
:102F0000813011F081E02CC00F930FB70F93F8942C
:102F100089818823B1F040FD06C009C0CE01B80107
:102F200042E00E94B40C89818823C1F704C0CE011D
:102F300042E00E94B40C0F910FBF0F910E94EE115E
:102F40000EC08C819D81892B29F00F910FBF0F91AD
:102F500084E106C07D836C830F910FBF0F9180E0E9
:102F6000DF91CF911F910F910895FC0180818130F5
:102F700011F081E008950F930FB70F93F8948181BA
:102F8000882359F0CF0142E00E94B40C0F910FBF8B
:102F90000F910E94EE1180E0089584819581892B24
:102FA00029F00F910FBF0F9184E108957583648319
:102FB0000F910FBF0F9180E008950F931F93CF9350
:102FC000DF93EC018A0180913B04882311F082E0B9
:102FD00004C08881813031F081E0F801808320E0F5
:102FE00030E090C00F930FB70F93F8942C813D8180
:102FF0002115310531F01D821C820F910FBF0F91F9
:103000005BC0A0913C04B0913D041D968C911D972E
:1030100082601D968C931D971C967C936E931B97D4
:103020001796DC93CE93169750968C915097282F35
:1030300030E051964C915197F901EA5CFB4F842F97
:103040008095908189238083882349F452969C91AE
:103050005297909580913504892380933504FE0121
:10306000E20FF31F8681842B8683898152969C917F
:10307000892B89830F910FBF0F910E94EE110F933F
:103080000FB70F93F894A0913C04B0913D041896AB
:103090002D913C9119972115310589F019961C92B3
:1030A0001E9218971D961C921D9717961C921E92A1
:1030B00016970F910FBF0F91F801108223C0509601
:1030C0008C915097FE01E80FF11D51968C9151970C
:1030D0008095968189238683882339F452969C9122
:1030E000529790958981892389831D961C921D97FB
:1030F00017961C921E9216970F910FBF0F918AE0A0
:10310000F8018083C901DF91CF911F910F9108953C
:10311000CF92DF92EF92FF920F931F93DF93CF93A3
:103120000F92CDB7DEB78C017901FC01808185302B
:1031300011F081E01BC00F930FB70F93F894442355
:1031400019F0413079F405C06095F8018381862338
:1031500003C0F8018381862B8383F801C180D2806C
:1031600019823FC00F910FBF0F9189E9F70180834A
:1031700080E04DC0F60181858130D1F0813078F05A
:10318000823019F0833009F505C0F6018085F80119
:1031900063810AC0F6016085F80183810EC0F601E3
:1031A0008085F8016381609568236817A9F407C0DA
:1031B000F80163816095F6018085682369F0C60196
:1031C0000E94270E813041F405C00F910FBF0F916F
:1031D00087E9CCCFF1E0F983F601808191819C01F0
:1031E0006901C114D10431F60F910FBF0F91F9811C
:1031F000F13011F40E94EE110F930FB70F93F89472
:10320000F80183810F910FBF0F91F70110820F908A
:10321000CF91DF911F910F91FF90EF90DF90CF90B2
:103220000895DF92EF92FF920F931F93DF93CF9356
:10323000CDB7DEB72B970FB6F894DEBF0FBECDBF6C
:103240007C01D42E80913B04882311F082E005C0DC
:10325000F7018081853029F081E0D8018C9380E0EE
:10326000E3C147FD02C01B8604C0BFE7DB22E1E0EB
:10327000EB870F930FB70F93F894F1E0DF1609F483
:103280001CC1DF1608F4BEC082E0D81629F0A3E006
:10329000DA1609F06CC15CC0F7019381862F89238F
:1032A000861781F4FB85F13029F460959623D701C8
:1032B00013969C93F70183810F910FBF0F91D80153
:1032C0001C92B2C1E0913C04F0913D04858580627E
:1032D0008587E0913C04F0913D043487238769871A
:1032E000DA86FE83ED83D7011196ED91FC9112975A
:1032F000FA83E9831C821B82F886EF82309721F0E3
:10330000CE01019693838283CE010196F7019283C9
:103310008183A0913C04B0913D045096EC9150976C
:10332000F0E0EA5CFB4F51968C915197809590812B
:1033300089238083882341F452969C9190958091B3
:1033400035048923809335040F910FBF0F9114C169
:10335000D70113969C91862F892371F0BB85B130DC
:1033600021F480958923F7018383D70113968C91EB
:103370000F910FBF0F9156C1E0913C04F0913D04B5
:10338000858580628587E0913C04F0913D04348717
:1033900023876987DA86FE83ED83D7011196ED9145
:1033A000FC911297FA83E9831C821B82F886EF82D4
:1033B000309721F0CE01019693838283CE0101964E
:1033C000F70192838183A0913C04B0913D04509613
:1033D000EC915097F0E0EA5CFB4F51968C9151973D
:1033E0008095908189238083882341F452969C9113
:1033F0009095809135048923809335040F910FBFF8
:103400000F91BAC0D70113969C91892F809586237E
:10341000861769F4BB85B13019F4962BF7019383B5
:10342000D70113968C910F910FBF0F91FBC0E091C4
:103430003C04F0913D04858580628587E0913C04E1
:10344000F0913D043487238769871A86FE83ED83D4
:10345000D7011196ED91FC911297FA83E9831C82B2
:103460001B82F886EF82309721F0CE01019693837C
:103470008283CE010196F70192838183A0913C045F
:10348000B0913D045096EC915097F0E0EA5CFB4F10
:1034900051968C91519780959081892380838823C0
:1034A00041F452969C9190958091350489238093A4
:1034B00035040F910FBF0F915FC0D70113969C91F8
:1034C000892F8095862369F0BB85B13019F4892B4B
:1034D000F7018383D70113968C910F910FBF0F9142
:1034E000A1C0E0913C04F0913D0485858062858710
:1034F000E0913C04F0913D04348723876987DA86A4
:10350000FE83ED83D7011196ED91FC911297FA831A
:10351000E9831C821B82F886EF82309721F0CE016E
:10352000019693838283CE010196F7019283818372
:10353000A0913C04B0913D045096EC915097F0E07E
:10354000EA5CFB4F51968C9151978095908189232D
:103550008083882341F452969C9190958091350404
:103560008923809335040F910FBF0F9105C00F91F0
:103570000FBF0F9187E971CE0E94EE110F930FB725
:103580000F93F894E0913C04F0913D04858585FF0C
:1035900025C0EB81FC81A981BA81309759F4EF8174
:1035A000F885B283A183109769F013961C921E923E
:1035B000129708C0B183A083109721F01396FC9353
:1035C000EE931297E0913C04F0913D0415860F9123
:1035D0000FBF0F918AE0F801808341CE2B85213007
:1035E000D9F481E08D1550F4A3E0AD1580F09285FB
:1035F0009095F7018381892383830EC0D7011396A9
:103600008C9113979285892B13968C9305C00F91FB
:103610000FBF0F9187E9DFCFD70113968C910F91E0
:103620000FBF0F91F80110822B960FB6F894DEBFF2
:103630000FBECDBFCF91DF911F910F91FF90EF9003
:10364000DF9008950E94F0038091F103813009F02A
:1036500042C0A0910C04B0910D042091350441E0CA
:1036600050E032C00F930FB70F93F8941B968D91D3
:103670009C911C97009709F101971C969C938E933F
:103680001B97892BD1F41D968C911D9783FD11C03A
:1036900052968C915297282B5096EC915097F0E0CF
:1036A000EA5CFB4F808151969C915197892B8083D6
:1036B00004C01C965C934E931B9712960D90BC9180
:1036C000A02D0F910FBF0F911E968C911E978F30DA
:1036D00049F62093350408958091F103882341F53C
:1036E000E0913504F0E0E658FF4FA081EA2FF0E0CA
:1036F000EA5CFB4FE081F0E0E658FF4FAA0FAA0F0B
:10370000AA0F8081A80FA093F603A0930B04B0E04A
:10371000AA0FBB1FAE5FB94F8D919C91909332045D
:103720008093310490933D0480933C040E941003E5
:1037300008958091F103813009F054C00F930FB7C1
:103740000F93F89480913B04882319F08150809363
:103750003B0480913B04882309F041C08091F00331
:103760008823E9F5E0913504F0E0E658FF4F8081C9
:1037700080933A04E82FF0E0EA5CFB4FE081F0E050
:10378000E658FF4F982F990F990F990F8081980F46
:103790009093F60380910B04981709F1E92FF0E05C
:1037A000EE0FFF1FEE5FF94F8081918190933204FD
:1037B0008093310480910E0490910F04A091100425
:1037C000B09111040196A11DB11D80930E04909338
:1037D0000F04A0931004B09311040E949D030F9155
:1037E0000FBF0F910895CF93DF930E94E8031092CB
:1037F0003B041092F003109214041092F103109203
:103800000E0410920F0410921004109211041092E2
:10381000F2031092F3031092F4031092F503109246
:103820003504109236041092370410920B04109253
:10383000F603109232041092310410923D0410925B
:103840003C04A2E4B5E08EEBED0119928A95E9F70C
:1038500080E2E2E0F6E0EF0119928A95E9F75396EB
:10386000FD017197B183A0835396E6E0A030BE07B7
:10387000B9F71092F0051092EF0510920D04109216
:103880000C0482E495E09093130480931204E2EA1E
:10389000F4E080EADF011D928A95E9F7CF010896EE
:1038A000108295838483FC01B5E08A339B07B1F7CE
:1038B00010821582148282EA94E0909339048093F6
:1038C00038040E9446110E94301181ED91E160E0C0
:1038D00070E041EA54E02FE00E94B0120E94E90338
:1038E000DF91CF910895A1E1B0E0E9E7FCE10C940C
:1038F0001D283C017F876E876A01FC0117821682B2
:10390000838181FD03C06FEF7FEF71C39E012F5F45
:103910003F4F398B288BF3012381EE85FF8523FDF3
:10392000859123FF8191FF87EE87882309F45CC38B
:10393000853251F4EE85FF8523FD859123FF81912A
:10394000FF87EE87853229F490E0B3010E94482575
:10395000E2CF982F10E0882499241032B0F49B32E3
:1039600069F09C3228F4903251F0933271F40BC01C
:103970009D3239F0903349F4116028C01260146010
:1039800025C0186023C0106121C017FD2AC0892FEF
:1039900080538A3078F416FF06C0FAE09F9E902C80
:1039A0001124980E13C03AE0839E802C1124880EB7
:1039B00010620CC09E3221F416FD16C3106406C0BE
:1039C0009C3611F4106802C0983659F4EE85FF85D4
:1039D00023FD959123FF9191FF87EE87992309F0AD
:1039E000BCCF892F8554833020F4812F8061905E75
:1039F00007C0892F8556833008F0A1C1812F8F7EA3
:103A000086FD02C076E0972E6FE3F62EF8229536FB
:103A100019F4F0E4FF2A07C0963619F420E8F22AD8
:103A200002C091109A94F7FE0BC03BE3391520F4C5
:103A300027E05CE3B52E0EC0B92CB39427E00AC092
:103A400047E0491528F427E0BB2447E0942E02C044
:103A5000292DBB24C60104969D878C87F6016081C1
:103A6000718182819381AE014F5F5F4F0B2D0E9468
:103A70000D246C010981202E332400FF04C003FDB6
:103A800002C01DE209C0F1FE02C01BE205C0F2FC4B
:103A900002C010E001C010E2C1018C709070892B4F
:103AA000B9F1112311F483E001C084E0881510F00E
:103AB00088240AC0881AF3FC07C080E290E0B301B2
:103AC0000E9448258A94C9F7112329F0812F90E09C
:103AD000B3010E94482523FE03C004E510E00EC098
:103AE00008E510E00BC0E114F10409F0805290E009
:103AF000B3010E9448250F5F1F4F05C0EF2CFF2424
:103B0000F0E1EF22FF24F8018491882361F714C1CA
:103B1000F7FE12C0BC0C24FE04C08A81813309F474
:103B2000BA941B141CF0BB24B3942DC0F8E0FB1511
:103B300050F538E0B32E27C0F6FC25C0892D90E063
:103B40008C159D054CF02CEFC2162FEFD20624F0F9
:103B500030E8F32A01C09A94992049F0E2E0F0E0BD
:103B6000EC0FFD1FE90DF11D80818033A1F3F7FEFD
:103B70000AC0B92CB394892D90E0C816D90614F068
:103B8000992401C09C18F7FC03C025E030E009C06F
:103B90001C141D041CF021E030E003C096012F5FCF
:103BA0003F4F112311F02F5F3F4F992029F0892DAE
:103BB00090E00196280F391F882D90E028173907CB
:103BC00014F0882401C0821A4F2C5524C201897038
:103BD0009070892B39F008C080E290E0B3010E9418
:103BE00048258A948820C1F7112329F0812F90E07D
:103BF000B3010E94482543FE07C008C080E390E05F
:103C0000B3010E9448258A948820C1F7F7FE46C078
:103C10008601D7FE02C000E010E076010894E11CA6
:103C2000F11CE01AF10A41E050E04C0F5D1FE40E78
:103C3000F51E26014B185108892D90E0AA24BB24BB
:103C4000A81AB90A5FEF0F3F150729F48EE290E03A
:103C5000B3010E944825C016D10634F04016510623
:103C60001CF4F701808101C080E3015010400894EA
:103C7000E11CF11C0A151B052CF090E0B3010E9419
:103C80004825E0CF0C151D0539F49A81963318F4B8
:103C9000953311F424FE81E390E04BC08A81813397
:103CA00009F00F7E90E0B3010E9448259920A1F011
:103CB0008EE290E0B3010E94482512E0E1E0F0E0DE
:103CC000EC0FFD1FE10FF11D1F5F808190E0B3013C
:103CD0000E9448259A9491F744FC03C085E690E041
:103CE00002C085E490E0B3010E944825D7FC05C0DE
:103CF000C114D10441F404FF06C0D094C194D1088A
:103D0000D3948DE201C08BE290E0B3010E9448257C
:103D100080E305C08F5F26EF3FEFC20ED31E3AE06F
:103D2000C316D104BCF790E0B3010E944825C60138
:103D3000C096B3010E944825CC84DD8452C19336DD
:103D400031F0933799F0933509F059C023C0F6014B
:103D5000808189835E010894A11CB11C22E030E0BF
:103D6000C20ED31E21E0E22EF12C12C0F601A0807B
:103D7000B18016FD03C06FEF7FEF02C0692D70E0C8
:103D800022E030E0C20ED31EC5010E94FB247C015C
:103D90001F7713C0F601A080B18016FD03C06FEF3E
:103DA0007FEF02C0692D70E022E030E0C20ED31E2A
:103DB000C5010E94F0247C01106813FF07C01BC0DE
:103DC00080E290E0B3010E9448258A94882D90E01B
:103DD000E816F906A8F30FC0F50117FD859117FF46
:103DE00081915F0190E0B3010E94482581108A947F
:103DF0000894E108F108E114F10471F7F2C0943677
:103E000011F0993689F517FF08C0F601208131813C
:103E10004281538184E090E00AC0F6018081918163
:103E20009C01442737FD4095542F82E090E0C80E56
:103E3000D91E9FE6F92EF12257FF09C050954095F3
:103E4000309521953F4F4F4F5F4F90E8F92ACA01B7
:103E5000B901AE014F5F5F4F2AE030E00E948E252E
:103E6000E82EE889EE1A41C0953721F41F7E2AE03A
:103E700030E01CC0197F9F3661F0903720F49835F0
:103E800009F0B2C00FC0903739F0983709F0ACC0D4
:103E900004C028E030E00AC0106114FD146020E185
:103EA00030E004C014FD166020E132E017FF08C0C6
:103EB000F601608171818281938144E050E008C005
:103EC000F60180819181BC0180E090E042E050E009
:103ED000C40ED51EAE014F5F5F4F0E948E25E82EA7
:103EE0005889E51A8FE7F82EF122F6FE0BC08EEF07
:103EF000F822E91438F4F4FE07C0F2FC05C09FEE86
:103F0000F92202C01E2D01C0192DF4FE0DC0FE01C4
:103F1000EE0DF11D8081803319F4E9EEFE2208C018
:103F20001F5FF2FE05C003C08F2D867809F01F5F6A
:103F30000F2DF3FC14C0F0FE0FC0181510F09E2CCE
:103F40000BC09E2C980C911A182D06C080E290E0B0
:103F5000B3010E9448251F5F1815C0F304C018154F
:103F600010F4811A01C0882404FF0FC080E390E0A0
:103F7000B3010E94482502FF1DC001FD03C088E770
:103F800090E00EC088E590E00BC0802F867891F01D
:103F900001FF02C08BE201C080E2F7FC8DE290E0FD
:103FA000B3010E94482506C080E390E0B3010E945F
:103FB00048259A94E914C0F3EA94E1E0F0E0EC0FAC
:103FC000FD1FEE0DF11D808190E0B3010E94482598
:103FD000EE2091F706C080E290E0B3010E944825F0
:103FE0008A948820C1F797CCF30166817781CB0151
:103FF0006196E2E10C943928FC0120FD08C023FD04
:1040000005C022FF02C073836283518340830895F9
:10401000EF92FF920F931F9344FF02C033E011C051
:1040200046FF02C034E00DC0DB01FC01AA0FBB1F3C
:10403000EE1FFF1F1094D1F76A0F7B1F8E1F9F1F6B
:1040400031E0660F771F881F991F3150D1F77B0130
:104050008C01E20EF11C011D111DA8019701B70191
:10406000CA011F910F91FF90EF9008950F931F9336
:10407000CF93DF938C01C8010E940625EC0197FDC8
:1040800008C00E947628892BB1F7CE01B8010E94A2
:104090007425CE01DF91CF911F910F9108958F92DA
:1040A0009F92AF92BF92DF92EF92FF920F931F9376
:1040B000CF93DF935C01EB014A01122F0E9406258A
:1040C000AC018B3219F08D3251F41068219709F44C
:1040D0006DC0C5010E940625AC0197FD67C06DEF5C
:1040E000D62ED1228D2D807301F54033F1F4219726
:1040F00009F447C0C5010E940625AC0197FD41C0E7
:1041000082E0D82A483711F0483559F480E4D82A9B
:104110002197B9F1C5010E940625AC0199232CF421
:1041200030C0D6FC02C080E1D82AEE24FF248701EB
:10413000242F2053283088F0D4FC09C02A3068F09E
:10414000D6FE05C02F7D822F8151863028F0CA010E
:10415000B5010E94742512C02750C801B7014D2D2A
:104160000E9408207B018C0182E0D82A219761F00F
:10417000C5010E940625AC0197FFDACFD1FC04C02F
:1041800015C0EE24FF248701D7FE08C010950095C6
:10419000F094E094E11CF11C011D111DC401B80153
:1041A000A7012D2D0E94FC1F81E001C080E0DF915E
:1041B000CF911F910F91FF90EF90DF90BF90AF9044
:1041C0009F908F900895A0E2B0E0E9EEF0E20C94A9
:1041D00021285C016B018A017901FE01319680E2A0
:1041E000DF011D928A95E9F770E030E060E040E081
:1041F00050E03F01A1E0B0E0F5018381F70183FDCC
:10420000259183FF21917F01222309F481C02E355E
:1042100019F44115510569F1872F90E0841795072E
:1042200044F42D3551F12D3221F4332329F431E0BA
:1042300021C0332309F4622F322F832F8695869570
:104240008695F301E80FF11D832F87704D0102C0A1
:10425000880C991C8A95E2F720812829208336173B
:1042600011F430E007C0361710F43F5FE6CF31504D
:10427000E4CF71E04F5F5F4FBFCF332319F08E81E2
:1042800080628E83772359F0FE0131969E012F5D67
:104290003F4F808180958193E217F307D1F79924EE
:1042A00093943E010894611C711CC5010E9406256F
:1042B000AC0197FD25C0869586958695F301E80F9C
:1042C000F11D808190E09A012770307002C09595B1
:1042D00087952A95E2F780FD05C0CA01B5010E94C5
:1042E00074250EC00115110519F0D8014D938D01EB
:1042F0000894C108D1089924C114D104B1F602C0B0
:10430000992031F40115110529F0F801108202C03D
:10431000EE24FF24C701A096EEE00C943D282F92D6
:104320003F925F926F927F928F929F92AF92BF92D5
:10433000CF92DF92EF92FF920F931F93CF93DF9371
:104340003C017B011A010E940625EC018B3239F0F9
:104350008D3211F0552411C0B0E85B2E01C05524F8
:104360000894E108F108E114F10409F418C1C3014B
:104370000E940625EC0197FD12C1CE010E947E2805
:104380008936910521F08E36910599F51DC001E71A
:1043900010E01CC00894E108F108E114F10471F088
:1043A000C3010E940625EC0197FD08C00E947E28EB
:1043B000D81661F0CE01B3010E94742520E00437C5
:1043C000120709F0ECC008C00EE610E0F8010F5F1C
:1043D0001F4FD490DD20F1F60157104029F080E006
:1043E00090E0A0E8BFE7CFC080E090E0A0ECBFE79E
:1043F000CAC0CC24DD24882499245401AE01405342
:10440000242F4A3038F552E0552A852D90E0AC0132
:104410004870507052FE06C0452B11F50894C11C1F
:10442000D11C1EC0452B19F00894C108D108C50144
:10443000B40140E20E9408204B015C0188E9881623
:1044400089E9980689E9A80689E1B80648F094E068
:10445000592A06C04E3F81F453FC0EC0E8E05E2AA4
:104460000894E108F108E114F10431F0C3010E945D
:104470000625EC0197FFC2CF51FE91C0C53619F059
:10448000C53409F046C00894E108F108E114F104CC
:1044900009F485C0C3010E940625EC0197FD7FC089
:1044A0008B3221F08D3269F4F0E15F2A0894E10843
:1044B000F108E114F10409F472C0C3010E94062559
:1044C000EC01CE01C0970A9708F069C000E010E047
:1044D000B801882777FD8095982FAE014053242F8F
:1044E00040E20E9408208B010894E108F108E114E1
:1044F000F10439F0C3010E940625EC01C0970A9728
:1045000038F3B80154FE03C0709561957F4FC60E15
:10451000D71EEF2831F0D7FD04C0CE01B3010E94B1
:104520007425C501B4010E94E926D7FE0DC0ADE88F
:10453000EA2EA0E0FA2ED094C194D108D394C0E220
:10454000D0E000E010E00EC0F5EAEF2EF0E0FF2E24
:10455000F6CFF70125913591459154910E949F27FF
:10456000CC1ADD0ACC16DD06A0F7D695C7950F5FED
:104570001F4F0630110529F0ECEFFFEFEE0EFF1E86
:10458000F1CFDC01CB0157FCB0582114310429F0E4
:10459000F10180839183A283B38381E001C080E035
:1045A000DF91CF911F910F91FF90EF90DF90CF900F
:1045B000BF90AF909F908F907F906F905F903F9053
:1045C0002F900895A0E0B0E0E8EEF2E20C942028ED
:1045D0004C015B013A01FC0117821682552404C18B
:1045E000812F90E00E947628892B21F0C4010E943F
:1045F0003620FAC0153249F4F501F3FC6591F3FE5B
:1046000061915F01653269F415E2C4010E940625DB
:1046100097FDF6C0181709F4E7C0B4010E9474258D
:10462000F4C06A3219F0162F00E006C0F3FC1591B1
:10463000F3FE11915F0101E0CC24DD240EC0026085
:10464000B60180E090E040E20E9408206B01F50195
:10465000F3FC1591F3FE11915F01212F20532A30B5
:1046600070F301FD04C0CC24CA94DC2C04C0C11436
:10467000D10409F4CAC0183621F01C3699F4F501AA
:104680000BC0F501F3FC6591F3FE6191683619F0FA
:104690005F01162F07C008600460F3FC1591F3FE5C
:1046A00011915F01112309F4B0C08CE590E0612FF6
:1046B00070E00E94E524892B09F4A7C0802F00FF39
:1046C00003C0EE24FF2407C0F301E080F18022E064
:1046D00030E0620E731E1E3651F4F401468157819C
:1046E00060E070E0C701202F0E94FC1F7DC01336E0
:1046F000B9F481FD03C081E0C82ED12CC4010E9411
:10470000062597FD7DC0E114F10419F0F7018193AE
:104710007F010894C108D108C114D10479F762C09F
:104720001B3559F4C401B601A70195010E94E3208D
:104730005C01009709F056C050C0C4010E943620A9
:1047400097FD5EC01F36D1F1103738F41436A1F151
:104750001936A9F11835D1F52DC0133751F014379A
:1047600018F4103799F526C0153731F1183771F55F
:1047700021C0C4010E940625EC0197FD15C00E94CE
:104780007628892B29F0CE01B4010E9474250CC033
:10479000E114F10419F0F701C1937F010894C108F5
:1047A000D108C114D10429F7E114F104D9F0F701BB
:1047B000108218C0006403C0006201C00061C4011F
:1047C000B601A701202F0E944F2005C0C401B601E9
:1047D000A7010E948F21882329F4F401838180732B
:1047E00079F413C000FF5394F401F380F501F3FC56
:1047F0001591F3FE11915F01112309F0F1CE05C06F
:10480000552019F42FEF3FEF02C0252D30E0C901EC
:10481000CDB7DEB7EFE00C943C28283008F027E055
:104820003327DA01990F311D87FD916000966105EC
:10483000710539F432602E5F3D9330E32A95E1F73C
:1048400008959F3F30F080387105610509F03C5FA5
:104850003C5F3D93913008F08068911DDF93CF93CA
:104860001F930F93FF92EF92192F987F9695E92F40
:1048700096959695E90FFF27ED5FFE4F9927332711
:10488000EE24FF24A701E70105900894079428F47B
:10489000360FE71EF81E491F511D660F771F881F30
:1048A000991F0694A1F70590079428F4E70EF81EC7
:1048B000491F561FC11D770F881F991F661F069439
:1048C000A1F70590079428F4F80E491F561FC71F3B
:1048D000D11D880F991F661F771F0694A1F70590B9
:1048E000079420F4490F561FC71FD81F990F661F42
:1048F000771F881F0694A9F784911095177041F0CF
:10490000D695C79557954795F794E7941A95C1F7AB
:10491000E9EAF0E0689415901591359165919591CB
:1049200005907FE27395E118F10A430B560BC90B12
:10493000D009C0F7E10CF11E431F561FC91FD01D3F
:104940007EF4703311F48A95E6CFE894015030F08C
:10495000080F0AF40027021708F4202F2395022FCE
:104960007A3328F079E37D932A95E9F710C07D9397
:104970002A9589F606949795679537951795179414
:10498000E118F10A430B560BC90BD00998F0239597
:104990007E9173957A3308F070E37C932013B8F717
:1049A0007E9170617D9330F0839571E37D9370E328
:1049B0002A95E1F71124EF90FF900F911F91CF916D
:1049C000DF91992787FD90950895FC0105900616C3
:1049D00021F00020D9F7C00108953197CF01089543
:1049E000FC010590615070400110D8F780959095BA
:1049F0008E0F9F1F0895FC016150704001900110BF
:104A0000D8F7809590958E0F9F1F0895CF93DF93D1
:104A1000EC014B8140FF1AC046FF0AC04F7B4B831D
:104A20008E819F8101969F838E838A81282F2BC040
:104A300042FF13C0E881F9818081282F332727FDA9
:104A400030952115310529F440624B832FEF3FEF5C
:104A50001BC03196F983E88311C0EA85FB85CE013E
:104A600009959C0197FF0AC09B812F5F3F4F11F072
:104A700080E201C080E1892B8B83E8CF8E819F810A
:104A800001969F838E8330E0C901DF91CF91089515
:104A90000F931F93CF93DF938C01EB018B8181FFE9
:104AA0001BC082FF0DC02E813F818C819D81281704
:104AB000390764F4E881F9810193F983E88306C03A
:104AC000E885F985802F0995892B31F48E819F81A6
:104AD00001969F838E8302C00FEF1FEFC801DF9105
:104AE000CF911F910F9108959C01FB01838180FF5D
:104AF00011C086FD0FC09FEF2F3F390759F0228369
:104B000080648F7D838386819781019797838683D5
:104B100030E002C02FEF3FEFC9010895FA01AA2744
:104B2000283051F1203181F1E8946F936E7F6E5FF0
:104B30007F4F8F4F9F4FAF4FB1E03ED0B4E03CD09E
:104B4000670F781F891F9A1FA11D680F791F8A1F81
:104B5000911DA11D6A0F711D811D911DA11D20D0E8
:104B600009F468943F912AE0269F11243019305DA2
:104B70003193DEF6CF010895462F4770405D419393
:104B8000B3E00FD0C9F7F6CF462F4F70405D4A33E0
:104B900018F0495D31FD4052419302D0A9F7EACFA8
:104BA000B4E0A6959795879577956795BA95C9F7D7
:104BB00000976105710508959B01AC010A2E0694CA
:104BC0005795479537952795BA95C9F7620F731F83
:104BD000841F951FA01D08955058BB27AA270ED0EB
:104BE00070C161D130F066D120F031F49F3F11F4F3
:104BF0001EF456C10EF4E095E7FB4CC1E92F72D1CB
:104C000080F3BA17620773078407950718F071F4E9
:104C10009EF58AC10EF4E0950B2EBA2FA02D0B0144
:104C2000B90190010C01CA01A0011124FF27591BF1
:104C300099F0593F50F4503E68F11A16F040A22FF7
:104C4000232F342F4427585FF3CF46953795279568
:104C5000A795F0405395C9F77EF41F16BA0B620B67
:104C6000730B840BBAF09150A1F0FF0FBB1F661FAE
:104C7000771F881FC2F70EC0BA0F621F731F841FF1
:104C800048F4879577956795B795F7959E3F08F017
:104C9000B3CF9395880F08F09927EE0F97958795D6
:104CA0000895D4D008F481E008950CD00AC102D14F
:104CB00040F0F9D030F021F45F3F19F0EBC0511112
:104CC00034C1EEC00FD198F39923C9F35523B1F342
:104CD000951B550BBB27AA2762177307840738F06B
:104CE0009F5F5F4F220F331F441FAA1FA9F333D0CA
:104CF0000E2E3AF0E0E830D091505040E695001C7E
:104D0000CAF729D0FE2F27D0660F771F881FBB1F39
:104D1000261737074807AB07B0E809F0BB0B802D13
:104D2000BF01FF2793585F4F2AF09E3F510568F05F
:104D3000B1C0FBC05F3FECF3983EDCF386957795FE
:104D40006795B795F7959F5FC9F7880F911D969561
:104D5000879597F90895E1E0660F771F881FBB1FBD
:104D6000621773078407BA0720F0621B730B840B6A
:104D7000BA0BEE1F88F7E0950895BCD088F09F57D6
:104D800090F0B92F9927B751A0F0D1F0660F771F97
:104D9000881F991F1AF0BA95C9F712C0B13081F077
:104DA000C3D0B1E00895C0C0672F782F8827B85FBF
:104DB00039F0B93FCCF3869577956795B395D9F7D8
:104DC0003EF490958095709561957F4F8F4F9F4FE2
:104DD0000895E89409C097FB3EF4909580957095EE
:104DE00061957F4F8F4F9F4F9923A9F0F92F96E937
:104DF000BB279395F695879577956795B795F111AC
:104E0000F8CFFAF4BB0F11F460FF1BC06F5F7F4F48
:104E10008F4F9F4F16C0882311F096E911C077235A
:104E200021F09EE8872F762F05C0662371F096E863
:104E3000862F70E060E02AF09A95660F771F881F32
:104E4000DAF7880F9695879597F90895990F0008D6
:104E5000550FAA0BE0E8FEEF16161706E807F9074C
:104E6000C0F012161306E407F50798F0621B730BE7
:104E7000840B950B39F40A2661F0232B242B252B68
:104E800021F408950A2609F4A140A6958FEF811D0B
:104E9000811D089597F99F6780E870E060E00895AC
:104EA0009FEF80EC089500240A9416161706180642
:104EB0000906089500240A9412161306140605061E
:104EC0000895092E0394000C11F4882352F0BB0FAF
:104ED00040F4BF2B11F460FF04C06F5F7F4F8F4F12
:104EE0009F4F089557FD9058440F551F59F05F3F4D
:104EF00071F04795880F97FB991F61F09F3F79F0FC
:104F000087950895121613061406551FF2CF46957D
:104F1000F1DF08C0161617061806991FF1CF8695FF
:104F20007105610508940895E894BB2766277727E3
:104F3000CB0197F908958ADF08F48FEF08950BD01D
:104F4000C0CFB1DF28F0B6DF18F0952309F0A2CF6B
:104F5000A7CF1124EACFC6DFA0F3959FD1F3950F19
:104F600050E0551F629FF001729FBB27F00DB11DED
:104F7000639FAA27F00DB11DAA1F649F6627B00D7D
:104F8000A11D661F829F2227B00DA11D621F739F66
:104F9000B00DA11D621F839FA00D611D221F749F74
:104FA0003327A00D611D231F849F600D211D822FBB
:104FB000762F6A2F11249F5750408AF0E1F0882302
:104FC0004AF0EE0FFF1FBB1F661F771F881F91500F
:104FD0005040A9F79E3F510570F05CCFA6CF5F3FD0
:104FE000ECF3983EDCF3869577956795B795F79542
:104FF000E7959F5FC1F7FE2B880F911D96958795CA
:1050000097F9089597FB092E05260ED057FD04D079
:105010004BD00AD0001C38F450954095309521951E
:105020003F4F4F4F5F4F0895F6F7909580957095DD
:1050300061957F4F8F4F9F4F08952F923F924F92D0
:105040005F926F927F928F929F92AF92BF92CF9218
:10505000DF92EF92FF920F931F93CF93DF93CDB721
:10506000DEB7CA1BDB0B0FB6F894DEBF0FBECDBF99
:1050700009942A88398848885F846E847D848C846A
:105080009B84AA84B984C884DF80EE80FD800C8173
:105090001B81AA81B981CE0FD11D0FB6F894DEBF56
:1050A0000FBECDBFED010895A1E21A2EAA1BBB1BB6
:1050B000FD010DC0AA1FBB1FEE1FFF1FA217B307E4
:1050C000E407F50720F0A21BB30BE40BF50B661FFA
:1050D000771F881F991F1A9469F7609570958095BE
:1050E00090959B01AC01BD01CF01089591110EC0B7
:1050F000803219F089508550D0F7089591110895A4
:1051000081548A5108F4805E855A0895992788272A
:065110000895F894FFCFA2
:105116001027000400000004000000040000000442
:105126000000010204081020408000000100020077
:10513600010003000100020001000400010002005A
:105146000100030001000200010005000100020049
:10515600010003000100020001000400010002003A
:105166000100030001000200010006000100020028
:10517600010003000100020001000400010002001A
:105186000100030001000200010005000100020009
:1051960001000300010002000100040001000200FA
:1051A60001000300010002000100070001000200E7
:1051B60001000300010002000100040001000200DA
:1051C60001000300010002000100050001000200C9
:1051D60001000300010002000100040001000200BA
:1051E60001000300010002000100060001000200A8
:1051F600010003000100020001000400010002009A
:105206000100030001000200010005000100020088
:105216000100030001000200010004000100020079
:0C52260001000300010002000100000074
:00000001FF
